:100000000C9434000C943E000C943E000C943E0082
:100010000C943E000C943E000C943E000C943E0068
:100020000C943E000C943E000C943E000C943E0058
:100030000C943E000C943E000C943E000C943E0048
:100040000C943E000C943E000C943E000C943E0038
:100050000C943E000C943E000C943E000C943E0028
:100060000C943E000C943E0011241FBECFEFD8E04C
:10007000DEBFCDBF0E944B000C945E000C940000CC
:100080009BB184E089278BB986EF92EC9093850031
:10009000809384000895529A86EF92EC90938500A5
:1000A000809384008091810085608093810010920C
:1000B000800081E080936F007894FFCFF894FFCFA9
:00000001FF
