:100000000C9434000C9446000C9446000C9446006A
:100010000C9446000C9446000C9446000C94460048
:100020000C9446000C9446000C9446000C94460038
:100030000C9446000C9446000C9448000C94460026
:100040000C9446000C9446000C9446000C94460018
:100050000C9446000C9446000C9446000C94460008
:100060000C9446000C94460011241FBECFEFD8E03C
:10007000DEBFCDBF21E0A0E0B1E001C01D92A23003
:10008000B207E1F70E946A000C9476000C9400001D
:100090001F920F920FB60F9211248F939F9380910E
:1000A000000190910101019690930101809300015C
:1000B0008536910544F09BB184E089278BB9109275
:1000C0000101109200019F918F910F900FBE0F9030
:1000D0001F90189581E08AB982E084BD9CE997BDA4
:1000E00080936E00789485E085BDFFCFF894FFCFB4
:00000001FF
