:100000000C9434000C943E000C943E000C943E0082
:100010000C943E000C943E000C943E000C943E0068
:100020000C943E000C943E000C943E000C94400056
:100030000C943E000C943E000C943E000C943E0048
:100040000C943E000C943E000C943E000C943E0038
:100050000C943E000C943E000C943E000C943E0028
:100060000C943E000C943E0011241FBECFEFD8E04C
:10007000DEBFCDBF0E9452000C9464000C940000BF
:100080001F920F920FB60F9211248F939F939BB1E3
:1000900084E089278BB99F918F910F900FBE0F90AD
:1000A0001F9018951AB888E08093810089E09DE33D
:1000B000909389008093880082E080936F00789409
:0C00C00085E080938100FFCFF894FFCF13
:00000001FF
